:0400000033EF00F0EA
:06000800098235EF00F053
:100018000980D8CF04F0E8CF05F0E0CF06F00A0E4B
:10002800076E22EF00F007C083FFA30E036E550E84
:10003800E82EFED7032EFCD700F007060750D8A4F9
:1000480028EF00F02AEF00F017EF00F0F09006C05C
:10005800E0FF05C0E8FF04C0D8FF099010007DEF5D
:1000680000F00A0E026E4CEF00F0550E836E820E01
:10007800016EDE0EE82EFED7012EFCD7AA0E836E87
:10008800820E016EDE0EE82EFED7012EFCD7020688
:100098000250D8A452EF00F054EF00F039EF00F00E
:1000A800F29209921100000E926E9368000E956EFE
:1000B800000E0F015B6F000E5C6F000E5E6F000E8E
:1000C800896E000E8C6ED00EF26E080EF06ED08E19
:1000D800120057EC00F0010E801AA30E086E550EA0
:1000E800E82EFED7082EFCD700F06FEF00F033EFB4
:0C00F80000F00990099200016DEF00F08B
:020000040020DA
:08000000FFFFFFFFFFFFFFFF00
:020000040030CA
:0E00000000285F3CFFD381FF0FC00FE00F40D0
:00000001FF
