:0400000033EF00F0EA
:06000800098282EF00F006
:100018000980D8CF04F0E8CF05F0E0CF06F00F0E46
:10002800076E22EF00F007C083FFA30E036E550E84
:10003800E82EFED7032EFCD700F007060750D8A4F9
:1000480028EF00F02AEF00F017EF00F0F09206C05A
:10005800E0FF05C0E8FF04C0D8FF09901000A3EF37
:1000680000F00A0E026E4BEF00F08368820E016EFC
:10007800DE0EE82EFED7012EFCD7000E836E820E10
:10008800016EDE0EE82EFED7012EFCD702060250C6
:10009800D8A451EF00F053EF00F039EF00F0120050
:1000A8000A0E026E63EF00F002C083FFA30E016E1A
:1000B800550EE82EFED7012EFCD700F0020602509E
:1000C800D8A469EF00F06BEF00F058EF00F01200D1
:1000D800000E926E9368000E956E000E0F015B6F16
:1000E800000E5C6F000E5E6F000E896E000E8C6E47
:1000F800D00EF26E580EF06ED08E1200F2A287EF7C
:1001080000F089EF00F08EEF00F035EC00F0F2928D
:1001180091EF00F054EC00F0F090099211006CECB3
:1001280000F0010E801AA30E086E550EE82EFED7B9
:10013800082EFCD700F095EF00F033EF00F009909F
:080148000992000193EF00F0A1
:020000040020DA
:08000000FFFFFFFFFFFFFFFF00
:020000040030CA
:0E00000000285F3CFFD381FF0FC00FE00F40D0
:00000001FF
