:0400000050EF0AF0C3
:100800000050756572746120636572726164610085
:0F081000436F6E7461646F723A2025642000009C
:1008200020C038F021C039F022C03AF023C03BF09C
:1008300024C03CF025C03DF026C03EF027C03FF06C
:100840003FBE25EF04F028EF04F0010E29EF04F07D
:10085000000E366E376A36503710D8B432EF04F0D7
:1008600034EF04F044EF04F03F1E3E1E3D1E3C1EDC
:100870003B1E3A1E391E386C000E39223A223B22AA
:100880003C223D223E223F22000165BF4AEF04F098
:100890004CEF04F04DEF04F0669365BF5AEF04F09F
:1008A000655106E16405D8B058EF04F05AEF04F042
:1008B00060EF04F0000E336E010E326E64EF04F050
:1008C00064C032F065C033F062C034F063C035F00C
:1008D00036503710D8A46FEF04F071EF04F078EFC2
:1008E00004F066A576EF04F078EF04F07BEF04F0F7
:1008F0003406D8A03506000E416E1F0E406E000E65
:10090000876FFFEF04F04006D8A04106680E402430
:10091000D96E000E4120DA6E38C001F039C002F005
:100920003AC003F03BC004F03CC005F03DC006F007
:100930003EC007F03FC008F00A0E096E000E0A6EB6
:10094000000E0B6E000E0C6E000E0D6E000E0E6E85
:10095000000E0F6E000E106E1FEC07F001C028F0A5
:1009600002C029F003C02AF004C02BF005C02CF00F
:1009700006C02DF007C02EF008C02FF028C013F0DD
:100980002AC014F0AAEC09F01350300FDF6E3206C3
:10099000D8A033063406D8A0350638C001F039C0D7
:1009A00002F03AC003F03BC004F03CC005F03DC08B
:1009B00006F03EC007F03FC008F00A0E096E000EB8
:1009C0000A6E000E0B6E000E0C6E000E0D6E000E09
:1009D0000E6E000E0F6E000E106E5BEC06F001C086
:1009E00038F002C039F003C03AF004C03BF005C053
:1009F0003CF006C03DF007C03EF008C03FF041BEED
:100A00000AEF05F0415008E14004D8A00AEF05F0D4
:100A10000CEF05F03DEF05F0385039103A103B105F
:100A20003C103D103E103F10D8A419EF05F01BEF0D
:100A300005F083EF04F033BE28EF05F0335006E1F4
:100A40003204D8B026EF05F028EF05F083EF04F06C
:100A500035BE33EF05F0355008E13404D8A033EF4C
:100A600005F035EF05F03DEF05F0000166B33BEF13
:100A700005F03DEF05F083EF04F036503710D8A4B1
:100A800044EF05F046EF05F04EEF05F0000166A5D6
:100A90004CEF05F04EEF05F06CEF05F04006D8A0E6
:100AA000410636503710D8A458EF05F05AEF05F03C
:100AB00060EF05F0000E316E2B0E306E64EF05F026
:100AC000000E316E2D0E306E680E4024D96E000E71
:100AD0004120DA6E30C0DFFF1EC013F01FC014F0DB
:100AE000680E4024156E000E4120166E34C017F0BB
:100AF00035C018F076EC08F013C01EF014C01FF0DB
:100B0000120044C0D9FF45C0DAFFDECFF6FFDDCFCB
:100B1000F7FF0800F550250AD8A491EF05F093EFF0
:100B200005F03FEF06F044C0D9FF45C0DAFFDE2AEA
:100B3000000EDD22000E0001636F000E626F62C0C6
:100B400066F063C067F06469656944C0D9FF45C059
:100B5000DAFFDECFF6FFDDCFF7FF0800F550640ABD
:100B6000D8B4B5EF05F0B7EF05F0C9EF05F044C014
:100B7000D9FF45C0DAFFDECFF6FFDDCFF7FF080073
:100B8000F550690AD8A4C7EF05F0C9EF05F009EFE1
:100B900006F044C0D9FF45C0DAFFDE2A000EDD2290
:100BA00046C0D9FF47C0DAFFDFCF48F0020EDE268D
:100BB000DFCF49F0000EDD2248C0D9FF49C0DAFF7F
:100BC000DECF4AF0DDCF4BF0000E4BBEFF0E4C6E79
:100BD0004D6E4E6E4F6E506E516E42C01EF043C051
:100BE0001FF04AC020F04BC021F04CC022F04DC095
:100BF00023F04EC024F04FC025F050C026F051C065
:100C000027F010EC04F01EC042F01FC043F05AEF72
:100C100006F044C0D9FF45C0DAFFDECFF6FFDDCFD6
:100C2000F7FF0800F550250AD8A419EF06F01BEFCE
:100C300006F032EF06F044C0D9FF45C0DAFFDE2AE5
:100C4000000EDD22000E046E250E036E42C005F07C
:100C500043C006F0D9EC08F0000E436E010E426E60
:100C60005AEF06F044C0D9FF45C0DAFFDE2A000E75
:100C7000DD22000E436E000E426E5AEF06F044C0B5
:100C8000D9FF45C0DAFFDECFF6FFDDCFF7FF080062
:100C9000F550036E046A42C005F043C006F0D9EC7B
:100CA00008F044C0D9FF45C0DAFFDE2A000EDD227D
:100CB0002CEF06F01200000E126E10BE64EF06F06C
:100CC00062EF06F076EF06F0101E0F1E0E1E0D1ED0
:100CD0000C1E0B1E0A1E096C000E0A220B220C228F
:100CE0000D220E220F221022010E126E08BE7DEF81
:100CF00006F07BEF06F08FEF06F0081E071E061EBB
:100D0000051E041E031E021E016C000E0222032299
:100D100004220522062207220822010E121A20EEC2
:100D200013F0070EDE6AE806FDE209500A100B1008
:100D30000C100D100E100F101010D8B4A2EF06F00A
:100D4000A4EF06F0F6EF06F0010E116EB2EF06F01A
:100D5000D89009360A360B360C360D360E360F365D
:100D60001036112A10AEB7EF06F0B9EF06F0A8EF73
:100D700006F0D89013361436153616361736183650
:100D800019361A360950015C0A5002580B500358A4
:100D90000C5004580D5005580E5006580F50075867
:100DA00010500858D8A0D7EF06F0D9EF06F0EAEFB8
:100DB00006F00950015E0A50025A0B50035A0C50BB
:100DC000045A0D50055A0E50065A0F50075A10502B
:100DD000085A1380D89010320F320E320D320C3276
:100DE0000B320A320932112EB9EF06F01250D8B484
:100DF000FCEF06F0FEEF06F00EEF07F01A1E191ECC
:100E0000181E171E161E151E141E136C000E14221B
:100E1000152216221722182219221A2213C001F0B5
:100E200014C002F015C003F016C004F017C005F09E
:100E300018C006F019C007F01AC008F01200000E22
:100E4000126E08BE28EF07F026EF07F03AEF07F022
:100E5000081E071E061E051E041E031E021E016C30
:100E6000000E022203220422052206220722082263
:100E7000010E126E10BE41EF07F03FEF07F051EF89
:100E800007F0101E0F1E0E1E0D1E0C1E0B1E0A1E3E
:100E9000096C000E0A220B220C220D220E220F22B8
:100EA000102209500A100B100C100D100E100F100C
:100EB0001010D8B45EEF07F060EF07F0A8EF07F06E
:100EC000010E116E6EEF07F0D89009360A360B3618
:100ED0000C360D360E360F361036112A10AE73EF63
:100EE00007F075EF07F064EF07F00950015C0A5056
:100EF00002580B5003580C5004580D5005580E5012
:100F000006580F50075810500858D8A08AEF07F01D
:100F10008CEF07F09CEF07F00950015E0A50025A6F
:100F20000B50035A0C50045A0D50055A0E50065AD5
:100F30000F50075A1050085AD89010320F320E3204
:100F40000D320C320B320A320932112E75EF07F0D6
:100F50001250D8B4AEEF07F0B0EF07F0C0EF07F0D3
:100F6000081E071E061E051E041E031E021E016C1F
:100F7000000E022203220422052206220722082252
:100F800001C001F002C002F003C003F004C004F08D
:100F900005C005F006C006F007C007F008C008F05D
:100FA0001200010E00018E6F000E8F6F000E8B6F0E
:100FB000000E8A6F000E896F17EC0AF024EC09F01E
:100FC000010E5A6E080E5B6E2BEC0AF0C20EFFEC9F
:100FD00009F0100E5A6E080E5B6E89C05CF08AC074
:100FE0005DF02BEC0AF03EEC0AF001C08CF002C080
:100FF0008DF000018DBF06EF08F0200E8C5D030E12
:101000008D59D8A006EF08F008EF08F027EF08F098
:101010008F51D8B40EEF08F010EF08F027EF08F06A
:10102000000E8F6F020E8E19D8A419EF08F01BEF77
:1010300008F021EF08F0894B8A2B010E8E6F23EF09
:1010400008F0020E8E6F000E8B6F67EF08F08DBFF9
:1010500035EF08F0200E8C5D030E8D59D8B033EFBC
:1010600008F035EF08F067EF08F080A03AEF08F0DD
:101070003CEF08F067EF08F0020E8E19D8A443EF9A
:1010800008F045EF08F04FEF08F08B51D8B44BEF64
:1010900008F04DEF08F04FEF08F0010E8E6F8F5102
:1010A000D8B455EF08F057EF08F05BEF08F0000EEA
:1010B0008F6F5DEF08F08EC08FF0010E8B6FA30E67
:1010C0000001886F550EE82EFED7882FFCD78FC001
:1010D0008DFF210E0001886F760EE82EFED7882F37
:1010E000FCD700F0E6EF07F000EF00F0000166A18A
:1010F0007CEF08F07EEF08F088EF08F015C00CF0E8
:1011000016C00DF013C00EF014C00FF088EC09F0FB
:1011100018BE8DEF08F08FEF08F095EF08F017C0BC
:101120001CF018C01DF099EF08F0000E1D6E000EA7
:101130001C6E000E1B6E000E1A6EABEF08F0000E58
:10114000046E200E036E13C005F014C006F0D9EC37
:1011500008F01A4A1B2A1C501A5C1B50800A196E90
:101160001D50800A1958D8A0B8EF08F0BAEF08F05F
:101170009FEF08F0000166B1C0EF08F0C2EF08F081
:10118000CCEF08F015C00CF016C00DF013C00EF037
:1011900014C00FF088EC09F015C001F016C002F081
:1011A000CAEC09F01C500124136E1D500220146E6D
:1011B000120005500610D8B4E0EF08F0E2EF08F096
:1011C000EBEF08F005500610D8A4E9EF08F0EBEFBC
:1011D00008F0F0EF08F00350E5EC09F023EF09F018
:1011E00020EE04F00550D9260650DA22DE50DE103B
:1011F000D8B4FDEF08F0FFEF08F01AEF09F020EE89
:1012000004F00550D9260650DA2210EE02F00550FF
:10121000E1260650E222DE50E65CE650800A0B6EC4
:10122000DE50800A0B58D8B018EF09F01AEF09F019
:1012300023EF09F020EE02F00550D9260650DA22FD
:10124000DE2A000EDD2212000A0E036EBC0EE82E0E
:10125000FED7032EFCD700D0020EFFEC09F0530E90
:10126000E82EFED700F0280EFFEC09F0530EE82E12
:10127000FED700F02C0EFFEC09F0530EE82EFED73F
:1012800000F00C0EFFEC09F0530EE82EFED700F034
:10129000060EFFEC09F0530EE82EFED700F0800E8C
:1012A000FFEC09F0530EE82EFED700F0120054C0F8
:1012B00058F055C059F0000E0001616F000E606FCC
:1012C00075EF09F052C042F053C043F0580E446E1F
:1012D000000E456E56C046F057C047F081EC05F051
:1012E0004250000160274350612358C0F6FF59C0A7
:1012F000F7FF0800F5500009D8A481EF09F083EF4B
:1013000009F062EF09F060C052F061C053F01200C2
:10131000000E126E000E116E99EF09F010C003F06E
:10132000046A0EC005F00FC006F0D9EC08F0114AAF
:10133000122A11500C24D96E12500D20DA6EDF5093
:10134000106E1050D8A4A7EF09F0A9EF09F08EEFA6
:1013500009F0120014BEB7EF09F0145006E11304AF
:10136000D8B0B5EF09F0B7EF09F0C5EF09F013C039
:1013700015F014C016F0151E161E154A162A15C0B3
:1013800013F016C014F0C9EF09F013C013F014C025
:1013900014F0120001C003F002C004F0D2EF09F013
:1013A000014A022A01C0D9FF02C0DAFFDF50D8A4E7
:1013B000DCEF09F0DEEF09F0D0EF09F00350015C3B
:1013C000016E04500258026E1200016E0150F00BC3
:1013D000026E025005098C6E00D0025001098C6E1D
:1013E000530EE82EFED700F00138F00B026E0250CB
:1013F00005098C6E00D0025001098C6E1200016E3E
:101400000150F00B026E025004098C6E00D002C035
:101410008CFF530EE82EFED700F00138F00B026E61
:10142000025004098C6E00D002C08CFF1200010E25
:10143000926E000E0F015B6F000E956E000E5E6FD8
:10144000000E966E000E5F6F390EC26E000EC16EFA
:10145000900EC06E12005C0E5E6E000E5F6E000E8F
:10146000526E000E536E5AC054F05BC055F05E0EC3
:10147000566E000E576E57EC09F01200C282C2B2CF
:1014800044EF0AF046EF0AF03FEF0AF0C450046E52
:10149000036AC3500324016E000E0420026E120082
:1014A00000EE60F0280EEE6AE806FDE1000EF86E30
:0A14B000080EF76E0001D1EF07F0FF
:020000040020DA
:08000000FFFFFFFFFFFFFFFF00
:020000040030CA
:0E00000000285F3CFFD381FF0FC00FE00F40D0
:00000001FF
