:04000000C9EF36F01E
:106D9200000117EF37F0C282C2B2D2EF36F0D4EF61
:106DA20036F0CDEF36F0C450046E036AC3500324AC
:106DB200016E000E0420026E1200230ED36E000E2E
:106DC200946E000E0F015D6F010EC26E000EC16E59
:106DD200900EC06E060EBA6E0C0EBD6E0B0EBE6E1F
:106DE2009D0EBB6E1200000E231A000E241A000E16
:106DF200251A800E261A1FC00FF020C010F021C0E5
:106E020011F022C012F023C013F024C014F025C0E8
:106E120015F026C016F0A0EC3DF00FC01FF010C018
:106E220020F011C021F012C022F01200DEEC36F088
:106E3200CCEC36F001C060F002C061F0000E00013F
:106E4200626F000E636F000E646F000E656F000EBE
:106E5200666FC00E676F7F0E686F440E696F000E1B
:106E62006A6F000E6B6FFA0E6C6F410E6D6F000E43
:106E72006E6F000E6F6F7A0E706F420E716F5BEC69
:106E820038F060C072F061C073F062C074F063C029
:106E920075F072C001F073C002F074C003F075C0E7
:106EA20004F0D8EC37F001C00BF002C00CF0000E79
:106EB2000E6E040E0D6E76EC37F00B50BE6EC338BC
:106EC200F00B0001766F7651300B766FBD50761164
:106ED200BD6E110E5D6E3A0EE82EFED75D2EFCD70A
:106EE20000D019EF37F000EF00F0000E106E0EBE6A
:106EF2007FEF37F07DEF37F085EF37F00D6C0E1E28
:106F0200D8B00E2A010E106E0CBE8CEF37F08AEF4D
:106F120037F092EF37F00B6C0C1ED8B00C2A010E32
:106F2200101A000E126E000E116E0D500E10D8B413
:106F32009DEF37F09FEF37F0C7EF37F0010E0F6E7E
:106F4200A7EF37F0D8900D360E360F2A0EAEACEF03
:106F520037F0AEEF37F0A3EF37F0D8901136123694
:106F62000D500B5C0E500C58D8A0BAEF37F0BCEFA6
:106F720037F0C1EF37F00D500B5E0E500C5A1180F6
:106F8200D8900E320D320F2EAEEF37F01050D8B42B
:106F9200CDEF37F0CFEF37F0D3EF37F0116C121E91
:106FA200D8B0122A11C00BF012C00CF01200033438
:106FB20004340A6E0A50D8A4E1EF37F0E3EF37F059
:106FC200EDEF37F0000E016E000E026E000E036E42
:106FD200000E046E5AEF38F001C005F002C006F050
:106FE20003C007F004C008F0200EFDEF37F0D89080
:106FF2000832073206320532E82EF8EF37F0055034
:10700200096E038EFF0E0116FF0E0216FF0E031607
:10701200000E0416960E0A5E0ABE14EF38F012EF46
:1070220038F02AEF38F00A50800A970FD8B01CEFD8
:1070320038F01EEF38F020EF38F0E3EF37F0D89059
:1070420004320332023201320A3E20EF38F042EFBC
:1070520038F01F0E0A6430EF38F032EF38F03AEFB2
:1070620038F0E3EF37F0D8900136023603360436B3
:107072000A060A50D8A440EF38F042EF38F034EF55
:1070820038F00950D8B448EF38F04AEF38F052EFF0
:1070920038F0041E031E021E016C000E022203229F
:1070A200042201C001F002C002F003C003F004C0D8
:1070B20004F0120062C023F063C024F064C025F023
:1070C20065C026F066C01FF067C020F068C021F0DE
:1070D20069C022F0F4EC36F01FC044F020C045F045
:1070E20021C046F022C047F06AC023F06BC024F0F2
:1070F2006CC025F06DC026F06EC01FF06FC020F08E
:1071020070C021F071C022F0F4EC36F01FC02BF0F9
:1071120020C02CF021C02DF022C02EF062C023F03E
:1071220063C024F064C025F065C026F060C001F0A1
:1071320061C002F0000E02BEFF0E036E046E010E6D
:10714200E4EC38F001C01FF002C020F003C021F0CF
:1071520004C022F0F4EC36F01FC027F020C028F063
:1071620021C029F022C02AF08BEC3BF027C040F06E
:1071720028C041F029C042F02AC043F0BEEC39F0E9
:1071820040C059F041C05AF042C05BF043C05CF0CD
:1071920059C00FF05AC010F05BC011F05CC012F081
:1071A2006AC013F06BC014F06CC015F06DC016F01D
:1071B200A0EC3DF00FC060F010C061F011C062F0B1
:1071C20012C063F01200096E0950D8B4EBEF38F028
:1071D200EDEF38F00FEF39F004BEF4EF38F0F2EFD4
:1071E20038F00FEF39F001C005F002C006F003C01D
:1071F20007F004C008F0051E061E071E081E052A19
:10720200000E06220722082205C00BF006C00CF071
:1072120007C00DF008C00EF017EF39F001C00BF0F7
:1072220002C00CF003C00DF004C00EF001500210B9
:1072320003100410D8A420EF39F022EF39F02CEF1C
:1072420039F0000E016E000E026E000E036E000E8B
:10725200046EBDEF39F0960E0A6E36EF39F00A2A47
:10726200D8900E320D320C320B32000E0B14056E1A
:10727200000E0C14066E000E0D14076EFE0E0E1498
:10728200086E0550061007100810D8A44BEF39F00D
:107292004DEF39F030EF39F05BEF39F00A2A010E89
:1072A2000B26000E0C220D220E22D8900E320D3229
:1072B2000C320B32000E0B14056E000E0C14066E0F
:1072C200000E0D14076EFF0E0E14086E0550061008
:1072D20007100810D8A470EF39F072EF39F04FEFB1
:1072E20039F07AEF39F00A06D8900B360C360D36A3
:1072F2000E360DBE7FEF39F081EF39F089EF39F0AC
:10730200020E0A6087EF39F089EF39F074EF39F035
:107312000AB08EEF39F090EF39F091EF39F00D9E0F
:10732200D8900A320AC005F0066A076A086A05C0E0
:1073320008F0076A066A056A05500B1206500C121D
:1073420007500D1208500E120950D8B4ABEF39F0A5
:10735200ADEF39F0B5EF39F004BEB4EF39F0B2EF6A
:1073620039F0B5EF39F00E8E0BC001F00CC002F00F
:107372000DC003F00EC004F012004350800B506E9B
:1073820043504324576E42AEC9EF39F0CBEF39F088
:10739200CCEF39F057805750D8B4D2EF39F0D4EF50
:1073A20039F0E9EF39F05728D8A4DAEF39F0DCEFF9
:1073B20039F0E4EF39F0000E406E000E416E000E1F
:1073C200426E000E436E428E000E436EF1EF39F0B4
:1073D200000E406E000E416E000E426E000E436EB5
:1073E2004750800B501A47504724586E46AEFCEF68
:1073F20039F0FEEF39F0FFEF39F058805850D8B429
:1074020005EF3AF007EF3AF01CEF3AF05828D8A40B
:107412000DEF3AF00FEF3AF017EF3AF0000E446E2C
:10742200000E456E000E466E000E476E468E000E32
:10743200476E24EF3AF0000E446E000E456E000EC9
:10744200466E000E476E4450451046104710D8A4B1
:107452002DEF3AF02FEF3AF047EF3AF0000E406E80
:10746200000E416E000E426E000E436E800E4212FE
:107472007F0E43125050431240C040F041C041F0D1
:1074820042C042F043C043F08AEF3BF05750D8A4C9
:107492004DEF3AF04FEF3AF059EF3AF0000E406EEE
:1074A200000E416E000E426E000E436E8AEF3BF0FC
:1074B200585057C048F0496A485E000E495A7F0E3C
:1074C2004824516E000E4920526E40C04CF041C01B
:1074D2004DF042C04EF043C04FF0000E406E000E21
:1074E200416E000E426E000E436E000E536E000E91
:1074F200546E000E556E000E566E000E586EBAEFA8
:107502003AF05850D8B488EF3AF08AEF3AF0A1EF47
:107512003AF0D8904C364D364E364F36D8904036EB
:1075220041364236433656AE99EF3AF09BEF3AF087
:107532009CEF3AF04080D890533654365536563642
:1075420044504C5C45504D5846504E5847504F5849
:10755200D8A0AEEF3AF0B0EF3AF0B9EF3AF0568C6D
:1075620044504C5E45504D5A46504E5A47504F5A21
:10757200582A190E5864C0EF3AF0C2EF3AF082EF7F
:107582003AF04C504D104E104F10D8B4CBEF3AF0A9
:10759200CDEF3AF0E5EF3AF05380E5EF3AF0D890CC
:1075A200403641364236433656AEDAEF3AF0DCEF39
:1075B2003AF0DDEF3AF04080D890533654365536E3
:1075C20056365106D8A0520642AEEAEF3AF0ECEF38
:1075D2003AF0D0EF3AF0000E586E56AEF3EF3AF0B2
:1075E200F5EF3AF019EF3BF0FF0E5314486EFF0E21
:1075F2005414496EFF0E55144A6E7F0E56144B6E8C
:10760200485049104A104B10D8B40AEF3BF00CEF27
:107612003BF010EF3BF0010E586E19EF3BF040A02B
:1076220015EF3BF017EF3BF019EF3BF00CEF3BF09F
:107632005850D8B41FEF3BF021EF3BF045EF3BF041
:10764200010E4026000E41224222432243A02CEF8B
:107652003BF02EEF3BF045EF3BF040C048F041C01D
:1076620049F042C04AF043C04BF04B344B324A32ED
:107672004932483248C040F049C041F04AC042F065
:107682004BC043F0514A522A52BE50EF3BF0525087
:1076920008E15128D8A050EF3BF052EF3BF05DEFEC
:1076A2003BF0000E526E5168000E406E000E416EAD
:1076B200000E426E000E436E52BE6AEF3BF0525015
:1076C20006E15104D8B068EF3BF06AEF3BF078EF87
:1076D2003BF0000E526E000E516E000E406E000E18
:1076E200416E000E426E000E436E000E506E51C08F
:1076F20057F057A07FEF3BF081EF3BF084EF3BF078
:10770200428E85EF3BF0429ED8905730436E3BEF5E
:107712003AF012002A50800B336E2A502A24396E16
:1077220029AE96EF3BF098EF3BF099EF3BF03980B2
:107732003950D8B49FEF3BF0A1EF3BF0B4EF3BF0F0
:107742003928D8A4A7EF3BF0A9EF3BF0B1EF3BF00B
:10775200000E276E000E286E000E296E000E2A6E95
:10776200298EBCEF3BF0000E276E000E286E000E35
:10777200296E000E2A6E2E50800B331A2E502E24A4
:10778200386E2DAEC7EF3BF0C9EF3BF0CAEF3BF0CE
:1077920038803850D8B4D0EF3BF0D2EF3BF0E5EF71
:1077A2003BF03828D8A4D8EF3BF0DAEF3BF0E2EF19
:1077B2003BF0000E2B6E000E2C6E000E2D6E000E96
:1077C2002E6E2D8EEDEF3BF0000E2B6E000E2C6E0A
:1077D200000E2D6E000E2E6E3850D8B4F3EF3BF033
:1077E200F5EF3BF0FDEF3BF03950D8A4FBEF3BF057
:1077F200FDEF3BF007EF3CF0000E276E000E286E07
:10780200000E296E000E2A6E9FEF3DF02D502702CA
:10781200F3CF3EF0F4CF3FF03E50346E356A366A15
:10782200376A3F503A6E3B6A3C6A3D6A2C502802E6
:10783200F3CF3EF0F4CF3FF03E503426000E352217
:10784200362237223F503A26000E3B223C223D226E
:107852002B502902F3CF3EF0F4CF3FF03E503426B6
:10786200000E3522362237223F503A26000E3B22A6
:107872003C223D2236C037F035C036F034C035F0F8
:10788200346A2B502802F3CF3EF0F4CF3FF03E5043
:1078920034263F503522000E3622000E37222C505D
:1078A2002702F3CF3EF0F4CF3FF03E5034263F5054
:1078B2003522000E3622000E372236C037F035C090
:1078C20036F034C035F0346A2B502702F3CF3EF045
:1078D200F4CF3FF03E5034263F503522000E362280
:1078E200000E37222D502802F3CF3EF0F4CF3FF0A6
:1078F2003E503A263F503B22000E3C22000E3D22D3
:107902002C502902F3CF3EF0F4CF3FF03E503A26FE
:107912003F503B22000E3C22000E3D222D502902F8
:10792200F3CF3EF0F4CF3FF03E502F6E3F50306E1B
:10793200316A326A31C032F030C031F02FC030F0DB
:107942002F6A2F503A2630503B2231503C2232507F
:107952003D2234C02FF035C030F036C031F037C090
:1079620032F0190EBAEF3CF0D89032323132303266
:107972002F32E82EB5EF3CF02F503A2630503B2202
:1079820031503C2232503D2236C037F035C036F0FD
:1079920034C035F0346A385039C02FF0306A2F269F
:1079A200000E3022820E2F243E6EFF0E30203F6EDC
:1079B200F0EF3CF0D8903A363B363C363D3637AEA7
:1079C200E5EF3CF0E7EF3CF0E8EF3CF03A80D8908E
:1079D20034363536363637363E06D8A03F063CAE0C
:1079E200F5EF3CF0F7EF3CF0DBEF3CF0000E386EC9
:1079F20037AEFEEF3CF000EF3DF024EF3DF0FF0E1E
:107A020034142F6EFF0E3514306EFF0E3614316EA5
:107A12007F0E3714326E2F50301031103210D8B41E
:107A220015EF3DF017EF3DF01BEF3DF0010E386E04
:107A320024EF3DF03AA020EF3DF022EF3DF024EF9D
:107A42003DF017EF3DF03850D8B42AEF3DF02CEF5F
:107A52003DF050EF3DF0010E3A26000E3B223C2253
:107A62003D223DA037EF3DF039EF3DF050EF3DF0C4
:107A72003AC02FF03BC030F03CC031F03DC032F094
:107A820032343232313230322F322FC03AF030C0FB
:107A92003BF031C03CF032C03DF03E4A3F2A3FBE8F
:107AA2005BEF3DF03F5008E13E28D8A05BEF3DF090
:107AB2005DEF3DF067EF3DF0000E3A6E000E3B6E5B
:107AC200800E3C6E7F0E3D6E95EF3DF03FBE74EF33
:107AD2003DF03F5006E13E04D8B072EF3DF074EF46
:107AE2003DF080EF3DF0000E3A6E000E3B6E000E50
:107AF2003C6E000E3D6E000E336E95EF3DF03EC0C3
:107B020039F0FF0E3A16FF0E3B167F0E3C16000EA2
:107B12003D1639A08FEF3DF091EF3DF092EF3DF031
:107B22003C8ED89039303D6E33503D123AC027F02A
:107B32003BC028F03CC029F03DC02AF01200125090
:107B4200800B1B6E125012241D6E11AEABEF3DF076
:107B5200ADEF3DF0AEEF3DF01D801D50D8B4B4EF57
:107B62003DF0B6EF3DF0CBEF3DF01D28D8A4BCEFC1
:107B72003DF0BEEF3DF0C6EF3DF0000E0F6E000E81
:107B8200106E000E116E000E126E118E000E126E2D
:107B9200D3EF3DF0000E0F6E000E106E000E116E50
:107BA200000E126E1650800B1C6E1B501C18D8B49F
:107BB200DDEF3DF0DFEF3DF0E0EF3DF01B8C1650C6
:107BC20016241C6E15AEE8EF3DF0EAEF3DF0EBEF48
:107BD2003DF01C801C50D8B4F1EF3DF0F3EF3DF0C6
:107BE20008EF3EF01C28D8A4F9EF3DF0FBEF3DF082
:107BF20003EF3EF0000E136E000E146E000E156EB3
:107C0200000E166E158E000E166E10EF3EF0000E70
:107C1200136E000E146E000E156E000E166E1D50C1
:107C22001C5CD8B017EF3EF019EF3EF040EF3EF08B
:107C32001BAC1EEF3EF020EF3EF022EF3EF0800E36
:107C42001B1A1DC01EF01CC01DF01EC01CF00FC070
:107C52001EF013C00FF01EC013F010C01EF014C0AF
:107C620010F01EC014F011C01EF015C011F01EC09D
:107C720015F012C01EF016C012F01EC016F0000E53
:107C82001E6E1D501CC017F0186A175E000E185A9F
:107C920018BE55EF3EF0185009E11A0E175CD8A035
:107CA20055EF3EF057EF3EF08EEF3EF00F501010C2
:107CB20011101210D8A460EF3EF063EF3EF0010EF7
:107CC20064EF3EF0000E1E6E000E0F6E000E106E80
:107CD200000E116E000E126E1CC01DF097EF3EF0EA
:107CE2001EA076EF3EF078EF3EF07EEF3EF0D890A9
:107CF2001E3001091E6E80EF3EF0D8901E320FA09A
:107D020085EF3EF087EF3EF088EF3EF01E8E123494
:107D12001232113210320F321D2A1C501D5CD8A0B3
:107D220095EF3EF097EF3EF071EF3EF01BBC9CEFFB
:107D32003EF09EEF3EF0DEEF3EF01D50D8A4A4EFE1
:107D42003EF0A6EF3EF0B0EF3EF0000E0F6E000EDA
:107D5200106E000E116E000E126EFFEF3FF0135008
:107D62000F2614501022155011221650122212A062
:107D7200BDEF3EF0BFEF3EF06BEF3FF01EA0C4EF51
:107D82003EF0C6EF3EF0CCEF3EF0D8901E30010937
:107D92001E6ECEEF3EF0D8901E320FA0D3EF3EF013
:107DA200D5EF3EF0D6EF3EF01E8E12341232113273
:107DB20010320F321D2A6BEF3FF013500F5C14503C
:107DC2001058155011581250800A176E1650800A1A
:107DD2001758D8B0EFEF3EF0F1EF3EF01CEF3FF056
:107DE2000F50135C176E10501458186E115015581E
:107DF200196E125016581A6EFF0E17240F6EFF0ED0
:107E02001820106EFF0E1920116EFF0E1A20126E2E
:107E1200800E1B1A1E6C1E50D8A412EF3FF014EFF6
:107E22003FF024EF3FF0010E0F26000E1022112228
:107E3200122224EF3FF013500F5E1450105A1550C7
:107E4200115A1650125A0F50101011101210D8A4B5
:107E52002DEF3FF02FEF3FF064EF3FF01E50D8A41C
:107E620035EF3FF037EF3FF064EF3FF0000E0F6E5B
:107E7200000E106E000E116E000E126EFFEF3FF03C
:107E8200D8900F361036113612361EAE4BEF3FF039
:107E92004DEF3FF04EEF3FF00F801EA053EF3FF04B
:107EA20055EF3FF059EF3FF0D8801E365BEF3FF0C1
:107EB200D8901E361D50D8B461EF3FF063EF3FF00B
:107EC20064EF3FF01D0611AE69EF3FF06BEF3FF03C
:107ED20041EF3FF0000E1C6E1EAE72EF3FF074EFEA
:107EE2003FF08CEF3FF01EC017F07F0E1716D8B48C
:107EF2007DEF3FF07FEF3FF083EF3FF0010E1C6E0E
:107F02008CEF3FF00FA088EF3FF08AEF3FF08CEF4D
:107F12003FF07FEF3FF01C50D8B492EF3FF094EF68
:107F22003FF0BFEF3FF0010E0F26000E102211228C
:107F3200122212A09FEF3FF0A1EF3FF0BFEF3FF000
:107F42000FC017F010C018F011C019F012C01AF0CB
:107F52001A341A3219321832173217C00FF018C0F9
:107F620010F019C011F01AC012F01D28D8B4BCEFDD
:107F72003FF0BEEF3FF0BFEF3FF01D2A1D28D8B4FF
:107F8200C5EF3FF0C7EF3FF0CFEF3FF01D50D8A451
:107F9200CDEF3FF0CFEF3FF0E1EF3FF0000E0F6E7D
:107FA200000E106E000E116E000E126E1D50D8A43F
:107FB200DDEF3FF0DFEF3FF0E1EF3FF0000E1B6E31
:107FC2001DA0E6EF3FF0E8EF3FF0EBEF3FF0118E40
:107FD200ECEF3FF0119ED8901D30126E1BAEF4EF05
:107FE2003FF0F6EF3FF0F7EF3FF0128E0FC00FF0C9
:0E7FF20010C010F011C011F012C012F01200F9
:020000040020DA
:08000000FFFFFFFFFFFFFFFF00
:020000040030CA
:0E00000000285F3CFFD381FF0FC00FE00F40D0
:00000001FF
