:040000004FEF3FF08F
:107E9E00000179EF3FF0C282C2B258EF3FF05AEFC5
:107EAE003FF053EF3FF0C450046E036AC3500324F7
:107EBE00016E000E0420026E1200230ED36E000E11
:107ECE00946E000E0F015D6F010EC26E000EC16E3C
:107EDE00900EC06E060EBA6E0C0EBD6E0B0EBE6E02
:107EEE00BB68120064EC3FF052EC3FF001C005F0AD
:107EFE0002C006F0000E086E040E076E9EEC3FF0F8
:107F0E000550BE6EC338F00B0E6E0E50300B0E6E5B
:107F1E00BD500E10BD6E210E0D6E760EE82EFED7E4
:107F2E000D2EFCD700D07BEF3FF000EF00F0000EDF
:107F3E000A6E08BEA7EF3FF0A5EF3FF0ADEF3FF0A2
:107F4E00076C081ED8B0082A010E0A6E06BEB4EFE2
:107F5E003FF0B2EF3FF0BAEF3FF0056C061ED8B01F
:107F6E00062A010E0A1A000E0C6E000E0B6E07503A
:107F7E000810D8B4C5EF3FF0C7EF3FF0EFEF3FF07A
:107F8E00010E096ECFEF3FF0D89007360836092A5A
:107F9E0008AED4EF3FF0D6EF3FF0CBEF3FF0D890E6
:107FAE000B360C360750055C08500658D8A0E2EF89
:107FBE003FF0E4EF3FF0E9EF3FF00750055E085069
:107FCE00065A0B80D89008320732092ED6EF3FF0B2
:107FDE000A50D8B4F5EF3FF0F7EF3FF0FBEF3FF06C
:107FEE000B6C0C1ED8B00C2A0BC005F00CC006F0A2
:027FFE0012006F
:020000040020DA
:08000000FFFFFFFFFFFFFFFF00
:020000040030CA
:0E00000000285F3CFFD381FF0FC00FE00F40D0
:00000001FF
