:040000003FEF3FF09F
:107E7E00000160EF3FF0020E936E020E0F015C6F79
:107E8E00290EC26E000EC16E970EC06E1200C28217
:107E9E00C2B254EF3FF056EF3FF04FEF3FF0C450F9
:107EAE00046E036AC3500324016E000E0420026E9A
:107EBE00120042EC3FF04EEC3FF001C00DF002C05C
:107ECE000EF0000E046E040E036E0DC001F00EC017
:107EDE0002F09EEC3FF0020E01140B6E0C6A0BC00A
:107EEE0001F00CC002F0000E046E020E036E9EEC4A
:107EFE003FF001C009F002C00AF00DC001F00EC043
:107F0E0002F0000E046E080E036E9EEC3FF0D89049
:107F1E0001340910816E210E096E760EE82EFED701
:107F2E00092EFCD700D062EF3FF000EF00F0000EFC
:107F3E00066E04BEA7EF3FF0A5EF3FF0ADEF3FF0AA
:107F4E00036C041ED8B0042A010E066E02BEB4EFF6
:107F5E003FF0B2EF3FF0BAEF3FF0016C021ED8B027
:107F6E00022A010E061A000E086E000E076E03504E
:107F7E000410D8B4C5EF3FF0C7EF3FF0EFEF3FF07E
:107F8E00010E056ECFEF3FF0D89003360436052A6A
:107F9E0004AED4EF3FF0D6EF3FF0CBEF3FF0D890EA
:107FAE00073608360350015C04500258D8A0E2EFA1
:107FBE003FF0E4EF3FF0E9EF3FF00350015E045075
:107FCE00025A0780D89004320332052ED6EF3FF0C6
:107FDE000650D8B4F5EF3FF0F7EF3FF0FBEF3FF070
:107FEE00076C081ED8B0082A07C001F008C002F0BE
:027FFE0012006F
:020000040020DA
:08000000FFFFFFFFFFFFFFFF00
:020000040030CA
:0E00000000285F3CFFD381FF0FC00FE00F40D0
:00000001FF
