:040000002BEF00F0F2
:100008001082F2A40AEF00F00CEF00F01FEF00F0EE
:100018000F2A090E0F6413EF00F015EF00F017EF29
:1000280000F0000E0F6E0FC001F0000E40EC04F05F
:10003800F29429EF00F0A1A824EF00F026EF00F0D9
:1000480029EF00F0010E891AA1981092110061EFB2
:0200580004F0B2
:10080000007E306D79335B5F707F7300010EF66E92
:1008100020EE05F0090E0900F5CFDEFFE806FBE249
:100820002AEC04F0000E54EC04F00F6E050E0F24B9
:10083000D96EDA6A000EDA22DF50836E110E046E72
:100840003A0EE82EFED7042EFCD700D016EF04F0A7
:100850002BEF00F0000E926E000E0F015B6F000E8A
:10086000896E000E956E000E5E6F000E8C6EA00EEF
:10087000F26ED08E830ED56EA088A69EA69C120026
:10088000026E02C0A9FF01C0A8FFA684550EA76E84
:10089000AA0EA76EA682A6B250EF04F052EF04F0A3
:1008A0004BEF04F0A6941200036E03C0A9FFA680CC
:1008B000A6B05DEF04F05FEF04F058EF04F0A8502D
:1008C000120010901092000EF86E080EF76E0001E4
:0408D00006EF04F03B
:020000040020DA
:08000000FFFFFFFFFFFFFFFF00
:020000040030CA
:0E00000000285F3CFFD381FF0FC00FE00F40D0
:00000001FF
