:04000000A7EF09F06D
:100800000020437572736F206465204D264D2000D3
:1008100020596561723A20256420000020C038F01C
:1008200021C039F022C03AF023C03BF024C03CF094
:1008300025C03DF026C03EF027C03FF03FBE23EF6D
:1008400004F026EF04F0010E27EF04F0000E366EE0
:10085000376A36503710D8B430EF04F032EF04F076
:1008600042EF04F03F1E3E1E3D1E3C1E3B1E3A1E44
:10087000391E386C000E39223A223B223C223D229E
:100880003E223F22000165BF48EF04F04AEF04F02A
:100890004BEF04F0669365BF58EF04F0655106E135
:1008A0006405D8B056EF04F058EF04F05EEF04F0A2
:1008B000000E336E010E326E62EF04F064C032F04F
:1008C00065C033F062C034F063C035F03650371085
:1008D000D8A46DEF04F06FEF04F076EF04F066A596
:1008E00074EF04F076EF04F079EF04F03406D8A04A
:1008F0003506000E416E1F0E406E000E876FFDEF35
:1009000004F04006D8A04106680E4024D96E000EBF
:100910004120DA6E38C001F039C002F03AC003F06D
:100920003BC004F03CC005F03DC006F03EC007F0FF
:100930003FC008F00A0E096E000E0A6E000E0B6E24
:10094000000E0C6E000E0D6E000E0E6E000E0F6E81
:10095000000E106E1DEC07F001C028F002C029F057
:1009600003C02AF004C02BF005C02CF006C02DF007
:1009700007C02EF008C02FF028C013F02AC014F0D2
:1009800027EC09F01350300FDF6E3206D8A0330683
:100990003406D8A0350638C001F039C002F03AC09C
:1009A00003F03BC004F03CC005F03DC006F03EC083
:1009B00007F03FC008F00A0E096E000E0A6E000E26
:1009C0000B6E000E0C6E000E0D6E000E0E6E000E05
:1009D0000F6E000E106E59EC06F001C038F002C028
:1009E00039F003C03AF004C03BF005C03CF006C04B
:1009F0003DF007C03EF008C03FF041BE08EF05F0F3
:100A0000415008E14004D8A008EF05F00AEF05F0D6
:100A10003BEF05F0385039103A103B103C103D10B8
:100A20003E103F10D8A417EF05F019EF05F081EF45
:100A300004F033BE26EF05F0335006E13204D8B09F
:100A400024EF05F026EF05F081EF04F035BE31EF1D
:100A500005F0355008E13404D8A031EF05F033EF4C
:100A600005F03BEF05F0000166B339EF05F03BEF11
:100A700005F081EF04F036503710D8A442EF05F0AE
:100A800044EF05F04CEF05F0000166A54AEF05F0D4
:100A90004CEF05F06AEF05F04006D8A0410636504D
:100AA0003710D8A456EF05F058EF05F05EEF05F0CB
:100AB000000E316E2B0E306E62EF05F0000E316EBF
:100AC0002D0E306E680E4024D96E000E4120DA6E75
:100AD00030C0DFFF1EC013F01FC014F0680E4024AA
:100AE000156E000E4120166E34C017F035C018F098
:100AF000CFEC07F013C01EF014C01FF0120044C06A
:100B0000D9FF45C0DAFFDECFF6FFDDCFF7FF0800E3
:100B1000F550250AD8A48FEF05F091EF05F03DEFD1
:100B200006F044C0D9FF45C0DAFFDE2A000EDD2200
:100B3000000E0001636F000E626F62C066F063C05A
:100B400067F06469656944C0D9FF45C0DAFFDECF4C
:100B5000F6FFDDCFF7FF0800F550640AD8B4B3EF15
:100B600005F0B5EF05F0C7EF05F044C0D9FF45C06B
:100B7000DAFFDECFF6FFDDCFF7FF0800F550690A98
:100B8000D8A4C5EF05F0C7EF05F007EF06F044C0A5
:100B9000D9FF45C0DAFFDE2A000EDD2246C0D9FFAC
:100BA00047C0DAFFDFCF48F0020EDE26DFCF49F084
:100BB000000EDD2248C0D9FF49C0DAFFDECF4AF07F
:100BC000DDCF4BF0000E4BBEFF0E4C6E4D6E4E6EE9
:100BD0004F6E506E516E42C01EF043C01FF04AC0AF
:100BE00020F04BC021F04CC022F04DC023F04EC08D
:100BF00024F04FC025F050C026F051C027F00EEC75
:100C000004F01EC042F01FC043F058EF06F044C08D
:100C1000D9FF45C0DAFFDECFF6FFDDCFF7FF0800D2
:100C2000F550250AD8A417EF06F019EF06F030EFBB
:100C300006F044C0D9FF45C0DAFFDE2A000EDD22EF
:100C4000000E046E250E036E42C005F043C006F090
:100C500032EC08F0000E436E010E426E58EF06F0C3
:100C600044C0D9FF45C0DAFFDE2A000EDD22000EA7
:100C7000436E000E426E58EF06F044C0D9FF45C0E7
:100C8000DAFFDECFF6FFDDCFF7FF0800F550036E89
:100C9000046A42C005F043C006F032EC08F044C0DC
:100CA000D9FF45C0DAFFDE2A000EDD222AEF06F06A
:100CB0001200000E126E10BE62EF06F060EF06F03A
:100CC00074EF06F0101E0F1E0E1E0D1E0C1E0B1EC6
:100CD0000A1E096C000E0A220B220C220D220E2283
:100CE0000F221022010E126E08BE7BEF06F079EF84
:100CF00006F08DEF06F0081E071E061E051E041ED8
:100D0000031E021E016C000E022203220422052291
:100D1000062207220822010E121A20EE13F0070EF7
:100D2000DE6AE806FDE209500A100B100C100D10E7
:100D30000E100F101010D8B4A0EF06F0A2EF06F0BE
:100D4000F4EF06F0010E116EB0EF06F0D890093600
:100D50000A360B360C360D360E360F361036112A83
:100D600010AEB5EF06F0B7EF06F0A6EF06F0D8909C
:100D700013361436153616361736183619361A360F
:100D80000950015C0A5002580B5003580C5004588B
:100D90000D5005580E5006580F500758105008585F
:100DA000D8A0D5EF06F0D7EF06F0E8EF06F009502F
:100DB000015E0A50025A0B50035A0C50045A0D504F
:100DC000055A0E50065A0F50075A1050085A1380F1
:100DD000D89010320F320E320D320C320B320A32F2
:100DE0000932112EB7EF06F01250D8B4FAEF06F020
:100DF000FCEF06F00CEF07F01A1E191E181E171E46
:100E0000161E151E141E136C000E14221522162217
:100E10001722182219221A2213C001F014C002F05E
:100E200015C003F016C004F017C005F018C006F096
:100E300019C007F01AC008F01200000E126E08BEAA
:100E400026EF07F024EF07F038EF07F0081E071E23
:100E5000061E051E041E031E021E016C000E022249
:100E6000032204220522062207220822010E126E06
:100E700010BE3FEF07F03DEF07F04FEF07F0101EF9
:100E80000F1E0E1E0D1E0C1E0B1E0A1E096C000EE0
:100E90000A220B220C220D220E220F2210220950B0
:100EA0000A100B100C100D100E100F101010D8B4EB
:100EB0005CEF07F05EEF07F0A6EF07F0010E116E92
:100EC0006CEF07F0D89009360A360B360C360D3623
:100ED0000E360F361036112A10AE71EF07F073EF91
:100EE00007F062EF07F00950015C0A5002580B50FE
:100EF00003580C5004580D5005580E5006580F500A
:100F0000075810500858D8A088EF07F08AEF07F06C
:100F10009AEF07F00950015E0A50025A0B50035A2B
:100F20000C50045A0D50055A0E50065A0F50075ACD
:100F30001050085AD89010320F320E320D320C3247
:100F40000B320A320932112E73EF07F01250D8B467
:100F5000ACEF07F0AEEF07F0BEEF07F0081E071E7C
:100F6000061E051E041E031E021E016C000E022238
:100F700003220422052206220722082201C001F0D2
:100F800002C002F003C003F004C004F005C005F085
:100F900006C006F007C007F008C008F01200000104
:100FA00066A1D5EF07F0D7EF07F0E1EF07F015C026
:100FB0000CF016C00DF013C00EF014C00FF005ECCD
:100FC00009F018BEE6EF07F0E8EF07F0EEEF07F0E4
:100FD00017C01CF018C01DF0F2EF07F0000E1D6ED8
:100FE000000E1C6E000E1B6E000E1A6E04EF08F051
:100FF000000E046E200E036E13C005F014C006F040
:1010000032EC08F01A4A1B2A1C501A5C1B50800A4A
:10101000196E1D50800A1958D8A011EF08F013EF6F
:1010200008F0F8EF07F0000166B119EF08F01BEFC8
:1010300008F025EF08F015C00CF016C00DF013C035
:101040000EF014C00FF005EC09F015C001F016C049
:1010500002F047EC09F01C500124136E1D500220D1
:10106000146E120005500610D8B439EF08F03BEFAB
:1010700008F044EF08F005500610D8A442EF08F03D
:1010800044EF08F049EF08F0035062EC09F07CEF00
:1010900008F020EE04F00550D9260650DA22DE5082
:1010A000DE10D8B456EF08F058EF08F073EF08F0F0
:1010B00020EE04F00550D9260650DA2210EE02F098
:1010C0000550E1260650E222DE50E65CE650800A3A
:1010D0000B6EDE50800A0B58D8B071EF08F073EF3A
:1010E00008F07CEF08F020EE02F00550D9260650FB
:1010F000DA22DE2A000EDD2212000A0E036EBC0E7A
:10110000E82EFED7032EFCD700D0020E7CEC09F0AF
:10111000530EE82EFED700F0280E7CEC09F0530E9B
:10112000E82EFED700F02C0E7CEC09F0530EE82ED2
:10113000FED700F00C0E7CEC09F0530EE82EFED723
:1011400000F0060E7CEC09F0530EE82EFED700F0FE
:10115000800E7CEC09F0530EE82EFED700F0120052
:1011600054C058F055C059F0000E0001616F000ED8
:10117000606FCEEF08F052C042F053C043F0580EFB
:10118000446E000E456E56C046F057C047F07FECE7
:1011900005F04250000160274350612358C0F6FF1C
:1011A00059C0F7FF0800F5500009D8A4DAEF08F09D
:1011B000DCEF08F0BBEF08F060C052F061C053F004
:1011C0001200B4EC09F07DEC08F0010E5A6E080E26
:1011D0005B6E94EC09F0C20E7CEC09F0100E5A6EB6
:1011E000080E5B6E070E5D6EE50E5C6E94EC09F00A
:1011F0008970A30E0001886F550EE82EFED7882F48
:10120000FCD7F8EF08F000EF00F0000E126E000EB1
:10121000116E16EF09F010C003F0046A0EC005F05D
:101220000FC006F032EC08F0114A122A11500C24BB
:10123000D96E12500D20DA6EDF50106E1050D8A407
:1012400024EF09F026EF09F00BEF09F0120014BEAD
:1012500034EF09F0145006E11304D8B032EF09F06E
:1012600034EF09F042EF09F013C015F014C016F086
:10127000151E161E154A162A15C013F016C014F0B6
:1012800046EF09F013C013F014C014F0120001C0AF
:1012900003F002C004F04FEF09F0014A022A01C036
:1012A000D9FF02C0DAFFDF50D8A459EF09F05BEF95
:1012B00009F04DEF09F00350015C016E0450025833
:1012C000026E1200016E0150F00B026E0250050911
:1012D0008C6E00D0025001098C6E530EE82EFED7A2
:1012E00000F00138F00B026E025005098C6E00D040
:1012F000025001098C6E1200016E0150F00B026E5B
:10130000025004098C6E00D002C08CFF530EE82EF0
:10131000FED700F00138F00B026E025004098C6E0B
:1013200000D002C08CFF12005C0E5E6E000E5F6E7D
:10133000000E526E000E536E5AC054F05BC055F052
:101340005E0E566E000E576EB0EC08F0120000EE06
:1013500060F0280EEE6AE806FDE1000EF86E080E59
:10136000F76E0001E1EF08F0000E926E000E956E30
:10137000000E0F015E6F000E5B6F000E896E120093
:020000040020DA
:08000000FFFFFFFFFFFFFFFF00
:020000040030CA
:0E00000000285F3CFFD381FF0FC00FE00F40D0
:00000001FF
