:0400000015EF00F008
:100008001682152A030E15640CEF00F00EEF00F0AF
:1000180010EF00F0000E156E000E146EF29216929C
:10002800110099EF00F012C008F013C009F00CC0DD
:1000380004F00DC005F00EC006F00FC007F010C0A8
:100048000AF011C00BF0B2EC00F070EF00F0080EEF
:100058001424D96EDA6A000EDA22DF50896E080E8F
:100068001424D96EDA6A000EDA22DF508C6E010E83
:10007800C3EC00F08DEF00F0040E1424D96EDA6A98
:10008800000EDA22DF50896E040E1424D96EDA6A63
:10009800000EDA22DF508C6E030EC3EC00F08DEFF9
:1000A80000F00A0E1424D96EDA6A000EDA22DF5044
:1000B800896E0A0E1424D96EDA6A000EDA22DF502D
:1000C8008C6E010EC3EC00F08DEF00F0000E896E0F
:1000D800000E8C6E8DEF00F01550026E036A03500F
:1000E800000AD8B47AEF00F08DEF00F00250000A51
:1000F800D8B42BEF00F0010AD8B440EF00F0030A9F
:10010800D8B455EF00F0010AD8B46AEF00F08DEFCB
:1001180000F0A30E026E550EE82EFED7022EFCD775
:1001280000F070EF00F015EF00F0A20EF66E010E71
:10013800F76E000EF86E00EE0CF010EE08F00900F5
:10014800F5CFEEFFE550E150FAE1156A146A169012
:100158001692000EF86E000117EF00F0000E926E76
:10016800000E0F015B6F010E936E000E5C6F000EA8
:10017800956E000E5E6FD00EF26ED08E1200016E7C
:10018800142A1450015CD8B0CCEF00F0CEEF00F088
:10019800D0EF00F0000E146E12003366CC99FF0009
:0201A80055AA56
:020000040020DA
:08000000FFFFFFFFFFFFFFFF00
:020000040030CA
:0E00000000285F3CFFD381FF0FC00FE00F40D0
:00000001FF
