:0400000044EF00F0D9
:100008005E82000169BF14EF00F0200E685D030EE8
:100018006959D8B012EF00F014EF00F041EF00F08A
:10002800020E5D18D8A41BEF00F01DEF00F034EFAE
:1000380000F06A51D8B423EF00F025EF00F034EF58
:1000480000F0010E5D6E000E8D6E040E016E3E0E08
:10005800E82EFED7012EFCD75DC08DFF3EEF00F0E5
:100068008450D8B43AEF00F03CEF00F030EF00F0E5
:10007800000E8D6E010E00016A6FF2925E92110001
:040088006BEF09F021
:1008000000546F74616C2064652063696572726561
:10081000730020202020202564202020202000207C
:10082000202020202564000021C039F022C03AF0A9
:1008300023C03BF024C03CF025C03DF026C03EF074
:1008400027C03FF028C040F040BE29EF04F02CEF55
:1008500004F0010E2DEF04F0000E376E386A3750A9
:100860003810D8B436EF04F038EF04F048EF04F055
:10087000401E3F1E3E1E3D1E3C1E3B1E3A1E396C56
:10088000000E3A223B223C223D223E223F224022C1
:10089000000165BF4EEF04F050EF04F051EF04F09B
:1008A000669365BF5EEF04F0655106E16405D8B05C
:1008B0005CEF04F05EEF04F064EF04F0000E346EC1
:1008C000010E336E68EF04F064C033F065C034F09D
:1008D00062C035F063C036F037503810D8A473EFDB
:1008E00004F075EF04F07CEF04F066A57AEF04F0F5
:1008F0007CEF04F07FEF04F03506D8A03606000E3A
:10090000426E1F0E416E000E8A6F03EF05F0410626
:10091000D8A042066B0E4124D96E000E4220DA6E3A
:1009200039C002F03AC003F03BC004F03CC005F00F
:100930003DC006F03EC007F03FC008F040C009F0DF
:100940000A0E0A6E000E0B6E000E0C6E000E0D6E7F
:10095000000E0E6E000E0F6E000E106E000E116E69
:1009600023EC07F002C029F003C02AF004C02BF0EA
:1009700005C02CF006C02DF007C02EF008C02FF0E7
:1009800009C030F029C014F02BC015F0B1EC09F00B
:100990001450300FDF6E3306D8A034063506D8A0C9
:1009A000360639C002F03AC003F03BC004F03CC048
:1009B00005F03DC006F03EC007F03FC008F040C063
:1009C00009F00A0E0A6E000E0B6E000E0C6E000E81
:1009D0000D6E000E0E6E000E0F6E000E106E000EED
:1009E000116E5FEC06F002C039F003C03AF004C0AB
:1009F0003BF005C03CF006C03DF007C03EF008C02B
:100A00003FF009C040F042BE0EEF05F0425008E151
:100A10004104D8A00EEF05F010EF05F041EF05F00E
:100A200039503A103B103C103D103E103F10401022
:100A3000D8A41DEF05F01FEF05F087EF04F034BEDA
:100A40002CEF05F0345006E13304D8B02AEF05F05E
:100A50002CEF05F087EF04F036BE37EF05F0365087
:100A600008E13504D8A037EF05F039EF05F041EF84
:100A700005F0000166B33FEF05F041EF05F087EFA9
:100A800004F037503810D8A448EF05F04AEF05F0CD
:100A900052EF05F0000166A550EF05F052EF05F0AA
:100AA00070EF05F04106D8A0420637503810D8A4A0
:100AB0005CEF05F05EEF05F064EF05F0000E326EBE
:100AC0002B0E316E68EF05F0000E326E2D0E316E7A
:100AD0006B0E4124D96E000E4220DA6E31C0DFFF6A
:100AE0001FC014F020C015F06B0E4124166E000ECE
:100AF0004220176E35C018F036C019F0D5EC07F05B
:100B000014C01FF015C020F0120045C0D9FF46C028
:100B1000DAFFDECFF6FFDDCFF7FF0800F550250A3C
:100B2000D8A495EF05F097EF05F043EF06F045C028
:100B3000D9FF46C0DAFFDE2A000EDD22000E0001DA
:100B4000636F000E626F62C066F063C067F0646935
:100B5000656945C0D9FF46C0DAFFDECFF6FFDDCFBD
:100B6000F7FF0800F550640AD8B4B9EF05F0BBEF01
:100B700005F0CDEF05F045C0D9FF46C0DAFFDECF66
:100B8000F6FFDDCFF7FF0800F550690AD8A4CBEFD8
:100B900005F0CDEF05F00DEF06F045C0D9FF46C0DA
:100BA000DAFFDE2A000EDD2247C0D9FF48C0DAFF97
:100BB000DFCF49F0020EDE26DFCF4AF0000EDD2245
:100BC00049C0D9FF4AC0DAFFDECF4BF0DDCF4CF091
:100BD000000E4CBEFF0E4D6E4E6E4F6E506E516E3F
:100BE000526E43C01FF044C020F04BC021F04CC0F7
:100BF00022F04DC023F04EC024F04FC025F050C06D
:100C000026F051C027F052C028F014EC04F01FC0A9
:100C100043F020C044F05EEF06F045C0D9FF46C067
:100C2000DAFFDECFF6FFDDCFF7FF0800F550250A2B
:100C3000D8A41DEF06F01FEF06F036EF06F045C012
:100C4000D9FF46C0DAFFDE2A000EDD22000E056E57
:100C5000250E046E43C006F044C007F089EC08F08E
:100C6000000E446E010E436E5EEF06F045C0D9FFE4
:100C700046C0DAFFDE2A000EDD22000E446E000EB2
:100C8000436E5EEF06F045C0D9FF46C0DAFFDECF07
:100C9000F6FFDDCFF7FF0800F550046E056A43C08C
:100CA00006F044C007F089EC08F045C0D9FF46C003
:100CB000DAFFDE2A000EDD2230EF06F01200000E11
:100CC000136E11BE68EF06F066EF06F07AEF06F0DD
:100CD000111E101E0F1E0E1E0D1E0C1E0B1E0A6C6A
:100CE000000E0B220C220D220E220F2210221122A6
:100CF000010E136E09BE81EF06F07FEF06F093EF51
:100D000006F0091E081E071E061E051E041E031EF1
:100D1000026C000E0322042205220622072208226A
:100D20000922010E131A20EE14F0070EDE6AE806FF
:100D3000FDE20A500B100C100D100E100F101010C9
:100D40001110D8B4A6EF06F0A8EF06F0FAEF06F0FF
:100D5000010E126EB6EF06F0D8900A360B360C363E
:100D60000D360E360F3610361136122A11AEBBEF85
:100D700006F0BDEF06F0ACEF06F0D890143615364D
:100D800016361736183619361A361B360A50025CD4
:100D90000B5003580C5004580D5005580E5006586F
:100DA0000F5007581050085811500958D8A0DBEFC1
:100DB00006F0DDEF06F0EEEF06F00A50025E0B5093
:100DC000035A0C50045A0D50055A0E50065A0F5033
:100DD000075A1050085A1150095A1480D8901132ED
:100DE00010320F320E320D320C320B320A32122E0A
:100DF000BDEF06F01350D8B400EF07F002EF07F094
:100E000012EF07F01B1E1A1E191E181E171E161EA3
:100E1000151E146C000E15221622172218221922F4
:100E20001A221B2214C002F015C003F016C004F0F1
:100E300017C005F018C006F019C007F01AC008F076
:100E40001BC009F01200000E136E09BE2CEF07F054
:100E50002AEF07F03EEF07F0091E081E071E061EC8
:100E6000051E041E031E026C000E0322042205222E
:100E70000622072208220922010E136E11BE45EF39
:100E800007F043EF07F055EF07F0111E101E0F1E7D
:100E90000E1E0D1E0C1E0B1E0A6C000E0B220C22C9
:100EA0000D220E220F22102211220A500B100C10BC
:100EB0000D100E100F1010101110D8B462EF07F0C3
:100EC00064EF07F0ACEF07F0010E126E72EF07F05F
:100ED000D8900A360B360C360D360E360F361036D5
:100EE0001136122A11AE77EF07F079EF07F068EFAD
:100EF00007F00A50025C0B5003580C5004580D5078
:100F000005580E5006580F500758105008581150E9
:100F10000958D8A08EEF07F090EF07F0A0EF07F088
:100F20000A50025E0B50035A0C50045A0D50055AD9
:100F30000E50065A0F50075A1050085A1150095AAD
:100F4000D890113210320F320E320D320C320B3279
:100F50000A32122E79EF07F01350D8B4B2EF07F02F
:100F6000B4EF07F0C4EF07F0091E081E071E061EA7
:100F7000051E041E031E026C000E0322042205221D
:100F8000062207220822092202C002F003C003F051
:100F900004C004F005C005F006C006F007C007F065
:100FA00008C008F009C009F01200000166A1DBEFDB
:100FB00007F0DDEF07F0E7EF07F016C00DF017C000
:100FC0000EF014C00FF015C010F08FEC09F019BE30
:100FD000ECEF07F0EEEF07F0F4EF07F018C01DF0AC
:100FE00019C01EF0F8EF07F0000E1E6E000E1D6E09
:100FF000000E1C6E000E1B6E0AEF08F0000E056E50
:10100000200E046E14C006F015C007F089EC08F03D
:101010001B4A1C2A1D501B5C1C50800A1A6E1E5055
:10102000800A1A58D8A017EF08F019EF08F0FEEF61
:1010300007F0000166B11FEF08F021EF08F02BEF79
:1010400008F016C00DF017C00EF014C00FF015C058
:1010500010F08FEC09F016C002F017C003F0D1ECCD
:1010600009F01D500224146E1E500320156E12004C
:10107000000169BF45EF08F0200E685D030E695955
:10108000D8A045EF08F047EF08F088EF08F084504B
:10109000D8B44DEF08F04FEF08F088EF08F0000EDD
:1010A0006A6F020E5D18D8A458EF08F05AEF08F0E6
:1010B00084EF08F091BF68EF08F0E70E905D030E33
:1010C0009159D8B066EF08F068EF08F06CEF08F0BF
:1010D000904B912B72EF08F0000E916F000E906F05
:1010E0005AEC0AF0C20E06EC0AF01F0E00018B6FDC
:1010F000080E8C6F90C08DF091C08EF047EC0AF016
:10110000010E5D6E86EF08F0020E5D6E000E8D6EB4
:10111000120006500710D8B490EF08F092EF08F0D4
:101120009BEF08F006500710D8A499EF08F09BEF4A
:1011300008F0A0EF08F00450ECEC09F0D3EF08F051
:1011400020EE04F00650D9260750DA22DE50DE10D9
:10115000D8B4ADEF08F0AFEF08F0CAEF08F020EE1A
:1011600004F00650D9260750DA2210EE02F006509D
:10117000E1260750E222DE50E65CE650800A0C6E63
:10118000DE50800A0C58D8B0C8EF08F0CAEF08F05B
:10119000D3EF08F020EE02F00650D9260750DA22ED
:1011A000DE2A000EDD2212001EEC0AF0040E000101
:1011B0008F6F3D0EE82EFED78F2FFCD700D007ECA7
:1011C00009F0010E00018B6F080E8C6F47EC0AF0DE
:1011D000C20E06EC0AF0120E00018B6F080E8C6F27
:1011E00090C08DF091C08EF047EC0AF034EC0AF01C
:1011F00038EC08F0210E00018F6F760EE82EFED736
:101200008F2FFCD700F0F6EF08F044EF00F00A0E45
:10121000046EBC0EE82EFED7042EFCD700D0020EC2
:1012200006EC0AF0530EE82EFED700F0280E06EC6E
:101230000AF0530EE82EFED700F02C0E06EC0AF052
:10124000530EE82EFED700F00C0E06EC0AF0530EFB
:10125000E82EFED700F0060E06EC0AF0530EE82E3C
:10126000FED700F0800E06EC0AF0530EE82EFED7F3
:1012700000F0120055C059F056C05AF0000E00019F
:10128000616F000E606F58EF09F053C043F054C017
:1012900044F0590E456E000E466E57C047F058C0D8
:1012A00048F085EC05F0435000016027445061236D
:1012B00059C0F6FF5AC0F7FF0800F5500009D8A43E
:1012C00064EF09F066EF09F045EF09F060C053F0F4
:1012D00061C054F01200D00EF66E140EF76E000EC0
:1012E000F86E0900F5CF90F00900F5CF91F0D20E1D
:1012F000F66E140EF76E000EF86E0900F5CF5DF075
:1013000000EE60F02B0EEE6AE806FDE15E905E9264
:10131000000EF86E080EF76E0001D4EF08F0000E14
:10132000136E000E126EA0EF09F011C004F0056AF2
:101330000FC006F010C007F089EC08F0124A132A1B
:1013400012500D24D96E13500E20DA6EDF50116E3C
:101350001150D8A4AEEF09F0B0EF09F095EF09F005
:10136000120015BEBEEF09F0155006E11404D8B006
:10137000BCEF09F0BEEF09F0CCEF09F014C016F095
:1013800015C017F0161E171E164A172A16C014F09D
:1013900017C015F0D0EF09F014C014F015C015F007
:1013A000120002C004F003C005F0D9EF09F0024AB0
:1013B000032A02C0D9FF03C0DAFFDF50D8A4E3EF4D
:1013C00009F0E5EF09F0D7EF09F00450025C026E76
:1013D00005500358036E1200026E0250F00B036EAC
:1013E000035005098C6E00D0035001098C6E530E1A
:1013F000E82EFED700F00238F00B036E035005090B
:101400008C6E00D0035001098C6E1200026E0250E7
:10141000F00B036E035004098C6E00D003C08CFFE8
:10142000530EE82EFED700F00238F00B036E035087
:1014300004098C6E00D003C08CFF12009368000E6C
:101440000F015C6F000E956E000E5E6F000E966EC3
:10145000000E5F6F390EC26E000EC16E900EC06E30
:10146000D00EF26ED08E1200C282C2B23AEF0AF0F3
:101470003CEF0AF035EF0AF0C450036E026AC35025
:1014800002240001686F000E0320696F12008D0EA8
:101490005B6E000E5C6E000E536E000E546E8BC0C1
:1014A00055F08CC056F05B0E576E000E586E3AEC3D
:1014B00009F01200010E06EC0AF0840E06EC0AF0A8
:1014C000010E00018B6F080E8C6F47EC0AF01200C2
:0314D000E603012F
:020000040020DA
:08000000FFFFFFFFFFFFFFFF00
:020000040030CA
:0E00000000285F3CFFD381FF0FC00FE00F40D0
:00000001FF
