:0400000014EF00F009
:100008000D820C2A090E0C640CEF00F00EEF00F0C4
:1000180010EF00F0000E0C6EF2949E900D921100FD
:0400280038EF04F0B9
:10080000007E306D79335B5F707F7300010EF66E92
:1008100020EE02F0090E0900F5CFDEFFE806FBE24C
:1008200026EC04F0020E0C24D96EDA6A000EDA22ED
:10083000DF50836E410E016EEE0EE82EFED7012EC4
:10084000FCD700D012EF04F014EF00F09268000E15
:10085000956E000E0F015B6F000E5E6F800EF26EE4
:10086000D08EE00ED56E210ECD6E010E9D6E120063
:100870000C6A0D900D92000EF86E080EF76E0001D6
:0408800006EF04F08B
:020000040020DA
:08000000FFFFFFFFFFFFFFFF00
:020000040030CA
:0E00000000285F3CFFD381FF0FC00FE00F40D0
:00000001FF
