:0400000017EF00F006
:100008000D820C2A090E0C640CEF00F00EEF00F0C4
:1000180010EF00F0000E0C6E0B0ED76E230ED66E8E
:0A0028009E900D9211003DEF04F0D0
:10080000007E306D79335B5F707F7300010EF66E92
:1008100020EE02F0090E0900F5CFDEFFE806FBE24C
:1008200026EC04F0020E0C24D96EDA6A000EDA22ED
:10083000DF50836E110E016E3A0EE82EFED7012EA8
:10084000FCD700D012EF04F017EF00F0000E926E0C
:10085000000E956E000E0F015B6F000E5E6F000EB6
:10086000896E800EF26ED08E210ECD6E010E9D6EC1
:100870000B0ED76E230ED66E12000C6A0D900D92E1
:0E088000000EF86E080EF76E000106EF04F091
:020000040020DA
:08000000FFFFFFFFFFFFFFFF00
:020000040030CA
:0E00000000285F3CFFD381FF0FC00FE00F40D0
:00000001FF
